:0300000002089162
:0C089100787FE4F6D8FD758107020800AE
:10087100E4FDFCE4FBFAD3EB9FEA9E50070BBB00BF
:0F088100010A80F20DBD00010CBC03E7BDE9E4E4
:010890002245
:10080000D2B0D2B1D2B6D2B77FC87E001208713052
:10081000B03730B13430B63130B72E30B20930B3E2
:100820000630B50320B422C2837F327E00120871E5
:10083000D2837F64120871A2B292B0A2B392B1A225
:10084000B492B6A2B592B780BF20B704D2B780B831
:1008500020B606D2B6C2B780AF20B108D2B1C2B6B8
:10086000C2B780A420B0A1D2B0C2B1C2B6C2B78014
:0108700097F0
:00000001FF
